{
  "_format": "hh-sol-artifact-1",
  "contractName": "Raffle",
  "sourceName": "contracts/Raffle.sol",
  "abi": [
    {
      "inputs": [],
      "stateMutability": "nonpayable",
      "type": "constructor"
    },
    {
      "inputs": [],
      "name": "NotOwner",
      "type": "error"
    },
    {
      "inputs": [
        {
          "internalType": "address",
          "name": "",
          "type": "address"
        }
      ],
      "name": "addressToAmountFunded",
      "outputs": [
        {
          "internalType": "uint256",
          "name": "",
          "type": "uint256"
        }
      ],
      "stateMutability": "view",
      "type": "function"
    },
    {
      "inputs": [
        {
          "internalType": "address",
          "name": "",
          "type": "address"
        }
      ],
      "name": "addressToAmountPaid",
      "outputs": [
        {
          "internalType": "uint256",
          "name": "",
          "type": "uint256"
        }
      ],
      "stateMutability": "view",
      "type": "function"
    },
    {
      "inputs": [],
      "name": "divFactor",
      "outputs": [
        {
          "internalType": "uint256",
          "name": "",
          "type": "uint256"
        }
      ],
      "stateMutability": "view",
      "type": "function"
    },
    {
      "inputs": [
        {
          "internalType": "address",
          "name": "account",
          "type": "address"
        },
        {
          "internalType": "uint256",
          "name": "_amount",
          "type": "uint256"
        }
      ],
      "name": "enterRaffle",
      "outputs": [],
      "stateMutability": "payable",
      "type": "function"
    },
    {
      "inputs": [],
      "name": "i_owner",
      "outputs": [
        {
          "internalType": "address",
          "name": "",
          "type": "address"
        }
      ],
      "stateMutability": "view",
      "type": "function"
    },
    {
      "inputs": [],
      "name": "paused",
      "outputs": [
        {
          "internalType": "bool",
          "name": "",
          "type": "bool"
        }
      ],
      "stateMutability": "view",
      "type": "function"
    },
    {
      "inputs": [
        {
          "internalType": "uint256",
          "name": "",
          "type": "uint256"
        }
      ],
      "name": "players",
      "outputs": [
        {
          "internalType": "address",
          "name": "",
          "type": "address"
        }
      ],
      "stateMutability": "view",
      "type": "function"
    },
    {
      "inputs": [],
      "name": "rafflePool",
      "outputs": [
        {
          "internalType": "uint256",
          "name": "",
          "type": "uint256"
        }
      ],
      "stateMutability": "view",
      "type": "function"
    },
    {
      "inputs": [
        {
          "internalType": "address",
          "name": "_winner",
          "type": "address"
        }
      ],
      "name": "recentWinner",
      "outputs": [],
      "stateMutability": "payable",
      "type": "function"
    },
    {
      "inputs": [
        {
          "internalType": "address payable",
          "name": "_winner",
          "type": "address"
        },
        {
          "internalType": "uint256",
          "name": "amount",
          "type": "uint256"
        }
      ],
      "name": "rewardWinner",
      "outputs": [],
      "stateMutability": "payable",
      "type": "function"
    },
    {
      "inputs": [
        {
          "internalType": "uint256",
          "name": "_divFactor",
          "type": "uint256"
        }
      ],
      "name": "setDivFactor",
      "outputs": [],
      "stateMutability": "nonpayable",
      "type": "function"
    },
    {
      "inputs": [
        {
          "internalType": "bool",
          "name": "_paused",
          "type": "bool"
        }
      ],
      "name": "setPaused",
      "outputs": [],
      "stateMutability": "payable",
      "type": "function"
    },
    {
      "inputs": [],
      "name": "winner",
      "outputs": [
        {
          "internalType": "address",
          "name": "",
          "type": "address"
        }
      ],
      "stateMutability": "view",
      "type": "function"
    },
    {
      "inputs": [],
      "name": "withdraw",
      "outputs": [],
      "stateMutability": "payable",
      "type": "function"
    }
  ],
  "bytecode": "60806040526001600460146101000a81548160ff021916908315150217905550662386f26fc1000060075534801561003657600080fd5b50600160008190555033600460006101000a81548173ffffffffffffffffffffffffffffffffffffffff021916908373ffffffffffffffffffffffffffffffffffffffff16021790555061155a8061008f6000396000f3fe6080604052600436106100dd5760003560e01c8063a425db081161007f578063d91a424811610059578063d91a424814610255578063dba6335f14610280578063dfbf53ae146102ab578063f71d96cb146102d6576100dd565b8063a425db08146101f4578063a838260914610210578063cb9fa30314610239576100dd565b80633e47d6f3116100bb5780633e47d6f3146101455780635795027f146101825780635c975abb1461019e5780639a395f1b146101c9576100dd565b806316c38b3c146100e257806332bf1432146100fe5780633ccfd60b1461013b575b600080fd5b6100fc60048036038101906100f79190610d76565b610313565b005b34801561010a57600080fd5b5061012560048036038101906101209190610e01565b6103b7565b6040516101329190610e47565b60405180910390f35b6101436103cf565b005b34801561015157600080fd5b5061016c60048036038101906101679190610e01565b610612565b6040516101799190610e47565b60405180910390f35b61019c60048036038101906101979190610ecc565b61062a565b005b3480156101aa57600080fd5b506101b3610838565b6040516101c09190610f1b565b60405180910390f35b3480156101d557600080fd5b506101de61084b565b6040516101eb9190610e47565b60405180910390f35b61020e60048036038101906102099190610f36565b610877565b005b34801561021c57600080fd5b5061023760048036038101906102329190610f76565b610957565b005b610253600480360381019061024e9190610e01565b6109e8565b005b34801561026157600080fd5b5061026a610ab3565b6040516102779190610e47565b60405180910390f35b34801561028c57600080fd5b50610295610ab9565b6040516102a29190610fb2565b60405180910390f35b3480156102b757600080fd5b506102c0610adf565b6040516102cd9190610fb2565b60405180910390f35b3480156102e257600080fd5b506102fd60048036038101906102f89190610f76565b610b05565b60405161030a9190610fb2565b60405180910390f35b600460009054906101000a900473ffffffffffffffffffffffffffffffffffffffff1673ffffffffffffffffffffffffffffffffffffffff163373ffffffffffffffffffffffffffffffffffffffff161461039a576040517f30cd747100000000000000000000000000000000000000000000000000000000815260040160405180910390fd5b80600460146101000a81548160ff02191690831515021790555050565b60026020528060005260406000206000915090505481565b600460009054906101000a900473ffffffffffffffffffffffffffffffffffffffff1673ffffffffffffffffffffffffffffffffffffffff163373ffffffffffffffffffffffffffffffffffffffff1614610456576040517f30cd747100000000000000000000000000000000000000000000000000000000815260040160405180910390fd5b60005b6003805490508110156105025760006003828154811061047c5761047b610fcd565b5b9060005260206000200160009054906101000a900473ffffffffffffffffffffffffffffffffffffffff1690506000600160008373ffffffffffffffffffffffffffffffffffffffff1673ffffffffffffffffffffffffffffffffffffffff168152602001908152602001600020819055505080806104fa9061102b565b915050610459565b50600067ffffffffffffffff81111561051e5761051d611074565b5b60405190808252806020026020018201604052801561054c5781602001602082028036833780820191505090505b5060039080519060200190610562929190610c92565b5060003373ffffffffffffffffffffffffffffffffffffffff1647604051610589906110d4565b60006040518083038185875af1925050503d80600081146105c6576040519150601f19603f3d011682016040523d82523d6000602084013e6105cb565b606091505b505090508061060f576040517f08c379a000000000000000000000000000000000000000000000000000000000815260040161060690611146565b60405180910390fd5b50565b60016020528060005260406000206000915090505481565b600460009054906101000a900473ffffffffffffffffffffffffffffffffffffffff1673ffffffffffffffffffffffffffffffffffffffff163373ffffffffffffffffffffffffffffffffffffffff16146106b1576040517f30cd747100000000000000000000000000000000000000000000000000000000815260040160405180910390fd5b8173ffffffffffffffffffffffffffffffffffffffff16600560009054906101000a900473ffffffffffffffffffffffffffffffffffffffff1673ffffffffffffffffffffffffffffffffffffffff1614610741576040517f08c379a0000000000000000000000000000000000000000000000000000000008152600401610738906111b2565b60405180910390fd5b80471015610784576040517f08c379a000000000000000000000000000000000000000000000000000000000815260040161077b9061121e565b60405180910390fd5b6000808373ffffffffffffffffffffffffffffffffffffffff16346040516107ab906110d4565b60006040518083038185875af1925050503d80600081146107e8576040519150601f19603f3d011682016040523d82523d6000602084013e6107ed565b606091505b509150915081610832576040517f08c379a00000000000000000000000000000000000000000000000000000000081526004016108299061128a565b60405180910390fd5b50505050565b600460149054906101000a900460ff1681565b60006006543073ffffffffffffffffffffffffffffffffffffffff163161087291906112d9565b905090565b60001515600460149054906101000a900460ff161515146108cd576040517f08c379a00000000000000000000000000000000000000000000000000000000081526004016108c490611356565b60405180910390fd5b34816007546108dc9190611376565b111561091d576040517f08c379a000000000000000000000000000000000000000000000000000000000815260040161091490611442565b60405180910390fd5b60006109296008610b44565b905060005b828110156109515761093e610b52565b80806109499061102b565b91505061092e565b50505050565b600460009054906101000a900473ffffffffffffffffffffffffffffffffffffffff1673ffffffffffffffffffffffffffffffffffffffff163373ffffffffffffffffffffffffffffffffffffffff16146109de576040517f30cd747100000000000000000000000000000000000000000000000000000000815260040160405180910390fd5b8060068190555050565b600460009054906101000a900473ffffffffffffffffffffffffffffffffffffffff1673ffffffffffffffffffffffffffffffffffffffff163373ffffffffffffffffffffffffffffffffffffffff1614610a6f576040517f30cd747100000000000000000000000000000000000000000000000000000000815260040160405180910390fd5b80600560006101000a81548173ffffffffffffffffffffffffffffffffffffffff021916908373ffffffffffffffffffffffffffffffffffffffff16021790555050565b60065481565b600460009054906101000a900473ffffffffffffffffffffffffffffffffffffffff1681565b600560009054906101000a900473ffffffffffffffffffffffffffffffffffffffff1681565b60038181548110610b1557600080fd5b906000526020600020016000915054906101000a900473ffffffffffffffffffffffffffffffffffffffff1681565b600081600001549050919050565b60026000541415610b98576040517f08c379a0000000000000000000000000000000000000000000000000000000008152600401610b8f906114ae565b60405180910390fd5b6002600081905550610baa6008610c7c565b6000610bb66008610b44565b905034600160003373ffffffffffffffffffffffffffffffffffffffff1673ffffffffffffffffffffffffffffffffffffffff1681526020019081526020016000206000828254610c0791906114ce565b925050819055506003339080600181540180825580915050600190039060005260206000200160009091909190916101000a81548173ffffffffffffffffffffffffffffffffffffffff021916908373ffffffffffffffffffffffffffffffffffffffff160217905550506001600081905550565b6001816000016000828254019250508190555050565b828054828255906000526020600020908101928215610d0b579160200282015b82811115610d0a5782518260006101000a81548173ffffffffffffffffffffffffffffffffffffffff021916908373ffffffffffffffffffffffffffffffffffffffff16021790555091602001919060010190610cb2565b5b509050610d189190610d1c565b5090565b5b80821115610d35576000816000905550600101610d1d565b5090565b600080fd5b60008115159050919050565b610d5381610d3e565b8114610d5e57600080fd5b50565b600081359050610d7081610d4a565b92915050565b600060208284031215610d8c57610d8b610d39565b5b6000610d9a84828501610d61565b91505092915050565b600073ffffffffffffffffffffffffffffffffffffffff82169050919050565b6000610dce82610da3565b9050919050565b610dde81610dc3565b8114610de957600080fd5b50565b600081359050610dfb81610dd5565b92915050565b600060208284031215610e1757610e16610d39565b5b6000610e2584828501610dec565b91505092915050565b6000819050919050565b610e4181610e2e565b82525050565b6000602082019050610e5c6000830184610e38565b92915050565b6000610e6d82610da3565b9050919050565b610e7d81610e62565b8114610e8857600080fd5b50565b600081359050610e9a81610e74565b92915050565b610ea981610e2e565b8114610eb457600080fd5b50565b600081359050610ec681610ea0565b92915050565b60008060408385031215610ee357610ee2610d39565b5b6000610ef185828601610e8b565b9250506020610f0285828601610eb7565b9150509250929050565b610f1581610d3e565b82525050565b6000602082019050610f306000830184610f0c565b92915050565b60008060408385031215610f4d57610f4c610d39565b5b6000610f5b85828601610dec565b9250506020610f6c85828601610eb7565b9150509250929050565b600060208284031215610f8c57610f8b610d39565b5b6000610f9a84828501610eb7565b91505092915050565b610fac81610dc3565b82525050565b6000602082019050610fc76000830184610fa3565b92915050565b7f4e487b7100000000000000000000000000000000000000000000000000000000600052603260045260246000fd5b7f4e487b7100000000000000000000000000000000000000000000000000000000600052601160045260246000fd5b600061103682610e2e565b91507fffffffffffffffffffffffffffffffffffffffffffffffffffffffffffffffff82141561106957611068610ffc565b5b600182019050919050565b7f4e487b7100000000000000000000000000000000000000000000000000000000600052604160045260246000fd5b600081905092915050565b50565b60006110be6000836110a3565b91506110c9826110ae565b600082019050919050565b60006110df826110b1565b9150819050919050565b600082825260208201905092915050565b7f43616c6c206661696c6564000000000000000000000000000000000000000000600082015250565b6000611130600b836110e9565b915061113b826110fa565b602082019050919050565b6000602082019050818103600083015261115f81611123565b9050919050565b7f7365742077696e6e657200000000000000000000000000000000000000000000600082015250565b600061119c600a836110e9565b91506111a782611166565b602082019050919050565b600060208201905081810360008301526111cb8161118f565b9050919050565b7f4e6f7420656e6f75676820746f6b656e73000000000000000000000000000000600082015250565b60006112086011836110e9565b9150611213826111d2565b602082019050919050565b60006020820190508181036000830152611237816111fb565b9050919050565b7f4661696c656420746f2073656e64204574686572000000000000000000000000600082015250565b60006112746014836110e9565b915061127f8261123e565b602082019050919050565b600060208201905081810360008301526112a381611267565b9050919050565b7f4e487b7100000000000000000000000000000000000000000000000000000000600052601260045260246000fd5b60006112e482610e2e565b91506112ef83610e2e565b9250826112ff576112fe6112aa565b5b828204905092915050565b7f526166666c65206e6f7420616374697665000000000000000000000000000000600082015250565b60006113406011836110e9565b915061134b8261130a565b602082019050919050565b6000602082019050818103600083015261136f81611333565b9050919050565b600061138182610e2e565b915061138c83610e2e565b9250817fffffffffffffffffffffffffffffffffffffffffffffffffffffffffffffffff04831182151516156113c5576113c4610ffc565b5b828202905092915050565b7f43727970746f50756e6b733a204e6f7420656e6f75676820657468657273207360008201527f656e740000000000000000000000000000000000000000000000000000000000602082015250565b600061142c6023836110e9565b9150611437826113d0565b604082019050919050565b6000602082019050818103600083015261145b8161141f565b9050919050565b7f5265656e7472616e637947756172643a207265656e7472616e742063616c6c00600082015250565b6000611498601f836110e9565b91506114a382611462565b602082019050919050565b600060208201905081810360008301526114c78161148b565b9050919050565b60006114d982610e2e565b91506114e483610e2e565b9250827fffffffffffffffffffffffffffffffffffffffffffffffffffffffffffffffff0382111561151957611518610ffc565b5b82820190509291505056fea2646970667358221220d6ebf9e0c62d2d55088393cfec2b919ee4a9950687b1e5842138b226fdc3c05f64736f6c63430008080033",
  "deployedBytecode": "60806040526001600460146101000a81548160ff021916908315150217905550662386f26fc1000060075534801561003657600080fd5b50600160008190555033600460006101000a81548173ffffffffffffffffffffffffffffffffffffffff021916908373ffffffffffffffffffffffffffffffffffffffff16021790555061155a8061008f6000396000f3fe6080604052600436106100dd5760003560e01c8063a425db081161007f578063d91a424811610059578063d91a424814610255578063dba6335f14610280578063dfbf53ae146102ab578063f71d96cb146102d6576100dd565b8063a425db08146101f4578063a838260914610210578063cb9fa30314610239576100dd565b80633e47d6f3116100bb5780633e47d6f3146101455780635795027f146101825780635c975abb1461019e5780639a395f1b146101c9576100dd565b806316c38b3c146100e257806332bf1432146100fe5780633ccfd60b1461013b575b600080fd5b6100fc60048036038101906100f79190610d76565b610313565b005b34801561010a57600080fd5b5061012560048036038101906101209190610e01565b6103b7565b6040516101329190610e47565b60405180910390f35b6101436103cf565b005b34801561015157600080fd5b5061016c60048036038101906101679190610e01565b610612565b6040516101799190610e47565b60405180910390f35b61019c60048036038101906101979190610ecc565b61062a565b005b3480156101aa57600080fd5b506101b3610838565b6040516101c09190610f1b565b60405180910390f35b3480156101d557600080fd5b506101de61084b565b6040516101eb9190610e47565b60405180910390f35b61020e60048036038101906102099190610f36565b610877565b005b34801561021c57600080fd5b5061023760048036038101906102329190610f76565b610957565b005b610253600480360381019061024e9190610e01565b6109e8565b005b34801561026157600080fd5b5061026a610ab3565b6040516102779190610e47565b60405180910390f35b34801561028c57600080fd5b50610295610ab9565b6040516102a29190610fb2565b60405180910390f35b3480156102b757600080fd5b506102c0610adf565b6040516102cd9190610fb2565b60405180910390f35b3480156102e257600080fd5b506102fd60048036038101906102f89190610f76565b610b05565b60405161030a9190610fb2565b60405180910390f35b600460009054906101000a900473ffffffffffffffffffffffffffffffffffffffff1673ffffffffffffffffffffffffffffffffffffffff163373ffffffffffffffffffffffffffffffffffffffff161461039a576040517f30cd747100000000000000000000000000000000000000000000000000000000815260040160405180910390fd5b80600460146101000a81548160ff02191690831515021790555050565b60026020528060005260406000206000915090505481565b600460009054906101000a900473ffffffffffffffffffffffffffffffffffffffff1673ffffffffffffffffffffffffffffffffffffffff163373ffffffffffffffffffffffffffffffffffffffff1614610456576040517f30cd747100000000000000000000000000000000000000000000000000000000815260040160405180910390fd5b60005b6003805490508110156105025760006003828154811061047c5761047b610fcd565b5b9060005260206000200160009054906101000a900473ffffffffffffffffffffffffffffffffffffffff1690506000600160008373ffffffffffffffffffffffffffffffffffffffff1673ffffffffffffffffffffffffffffffffffffffff168152602001908152602001600020819055505080806104fa9061102b565b915050610459565b50600067ffffffffffffffff81111561051e5761051d611074565b5b60405190808252806020026020018201604052801561054c5781602001602082028036833780820191505090505b5060039080519060200190610562929190610c92565b5060003373ffffffffffffffffffffffffffffffffffffffff1647604051610589906110d4565b60006040518083038185875af1925050503d80600081146105c6576040519150601f19603f3d011682016040523d82523d6000602084013e6105cb565b606091505b505090508061060f576040517f08c379a000000000000000000000000000000000000000000000000000000000815260040161060690611146565b60405180910390fd5b50565b60016020528060005260406000206000915090505481565b600460009054906101000a900473ffffffffffffffffffffffffffffffffffffffff1673ffffffffffffffffffffffffffffffffffffffff163373ffffffffffffffffffffffffffffffffffffffff16146106b1576040517f30cd747100000000000000000000000000000000000000000000000000000000815260040160405180910390fd5b8173ffffffffffffffffffffffffffffffffffffffff16600560009054906101000a900473ffffffffffffffffffffffffffffffffffffffff1673ffffffffffffffffffffffffffffffffffffffff1614610741576040517f08c379a0000000000000000000000000000000000000000000000000000000008152600401610738906111b2565b60405180910390fd5b80471015610784576040517f08c379a000000000000000000000000000000000000000000000000000000000815260040161077b9061121e565b60405180910390fd5b6000808373ffffffffffffffffffffffffffffffffffffffff16346040516107ab906110d4565b60006040518083038185875af1925050503d80600081146107e8576040519150601f19603f3d011682016040523d82523d6000602084013e6107ed565b606091505b509150915081610832576040517f08c379a00000000000000000000000000000000000000000000000000000000081526004016108299061128a565b60405180910390fd5b50505050565b600460149054906101000a900460ff1681565b60006006543073ffffffffffffffffffffffffffffffffffffffff163161087291906112d9565b905090565b60001515600460149054906101000a900460ff161515146108cd576040517f08c379a00000000000000000000000000000000000000000000000000000000081526004016108c490611356565b60405180910390fd5b34816007546108dc9190611376565b111561091d576040517f08c379a000000000000000000000000000000000000000000000000000000000815260040161091490611442565b60405180910390fd5b60006109296008610b44565b905060005b828110156109515761093e610b52565b80806109499061102b565b91505061092e565b50505050565b600460009054906101000a900473ffffffffffffffffffffffffffffffffffffffff1673ffffffffffffffffffffffffffffffffffffffff163373ffffffffffffffffffffffffffffffffffffffff16146109de576040517f30cd747100000000000000000000000000000000000000000000000000000000815260040160405180910390fd5b8060068190555050565b600460009054906101000a900473ffffffffffffffffffffffffffffffffffffffff1673ffffffffffffffffffffffffffffffffffffffff163373ffffffffffffffffffffffffffffffffffffffff1614610a6f576040517f30cd747100000000000000000000000000000000000000000000000000000000815260040160405180910390fd5b80600560006101000a81548173ffffffffffffffffffffffffffffffffffffffff021916908373ffffffffffffffffffffffffffffffffffffffff16021790555050565b60065481565b600460009054906101000a900473ffffffffffffffffffffffffffffffffffffffff1681565b600560009054906101000a900473ffffffffffffffffffffffffffffffffffffffff1681565b60038181548110610b1557600080fd5b906000526020600020016000915054906101000a900473ffffffffffffffffffffffffffffffffffffffff1681565b600081600001549050919050565b60026000541415610b98576040517f08c379a0000000000000000000000000000000000000000000000000000000008152600401610b8f906114ae565b60405180910390fd5b6002600081905550610baa6008610c7c565b6000610bb66008610b44565b905034600160003373ffffffffffffffffffffffffffffffffffffffff1673ffffffffffffffffffffffffffffffffffffffff1681526020019081526020016000206000828254610c0791906114ce565b925050819055506003339080600181540180825580915050600190039060005260206000200160009091909190916101000a81548173ffffffffffffffffffffffffffffffffffffffff021916908373ffffffffffffffffffffffffffffffffffffffff160217905550506001600081905550565b6001816000016000828254019250508190555050565b828054828255906000526020600020908101928215610d0b579160200282015b82811115610d0a5782518260006101000a81548173ffffffffffffffffffffffffffffffffffffffff021916908373ffffffffffffffffffffffffffffffffffffffff16021790555091602001919060010190610cb2565b5b509050610d189190610d1c565b5090565b5b80821115610d35576000816000905550600101610d1d565b5090565b600080fd5b60008115159050919050565b610d5381610d3e565b8114610d5e57600080fd5b50565b600081359050610d7081610d4a565b92915050565b600060208284031215610d8c57610d8b610d39565b5b6000610d9a84828501610d61565b91505092915050565b600073ffffffffffffffffffffffffffffffffffffffff82169050919050565b6000610dce82610da3565b9050919050565b610dde81610dc3565b8114610de957600080fd5b50565b600081359050610dfb81610dd5565b92915050565b600060208284031215610e1757610e16610d39565b5b6000610e2584828501610dec565b91505092915050565b6000819050919050565b610e4181610e2e565b82525050565b6000602082019050610e5c6000830184610e38565b92915050565b6000610e6d82610da3565b9050919050565b610e7d81610e62565b8114610e8857600080fd5b50565b600081359050610e9a81610e74565b92915050565b610ea981610e2e565b8114610eb457600080fd5b50565b600081359050610ec681610ea0565b92915050565b60008060408385031215610ee357610ee2610d39565b5b6000610ef185828601610e8b565b9250506020610f0285828601610eb7565b9150509250929050565b610f1581610d3e565b82525050565b6000602082019050610f306000830184610f0c565b92915050565b60008060408385031215610f4d57610f4c610d39565b5b6000610f5b85828601610dec565b9250506020610f6c85828601610eb7565b9150509250929050565b600060208284031215610f8c57610f8b610d39565b5b6000610f9a84828501610eb7565b91505092915050565b610fac81610dc3565b82525050565b6000602082019050610fc76000830184610fa3565b92915050565b7f4e487b7100000000000000000000000000000000000000000000000000000000600052603260045260246000fd5b7f4e487b7100000000000000000000000000000000000000000000000000000000600052601160045260246000fd5b600061103682610e2e565b91507fffffffffffffffffffffffffffffffffffffffffffffffffffffffffffffffff82141561106957611068610ffc565b5b600182019050919050565b7f4e487b7100000000000000000000000000000000000000000000000000000000600052604160045260246000fd5b600081905092915050565b50565b60006110be6000836110a3565b91506110c9826110ae565b600082019050919050565b60006110df826110b1565b9150819050919050565b600082825260208201905092915050565b7f43616c6c206661696c6564000000000000000000000000000000000000000000600082015250565b6000611130600b836110e9565b915061113b826110fa565b602082019050919050565b6000602082019050818103600083015261115f81611123565b9050919050565b7f7365742077696e6e657200000000000000000000000000000000000000000000600082015250565b600061119c600a836110e9565b91506111a782611166565b602082019050919050565b600060208201905081810360008301526111cb8161118f565b9050919050565b7f4e6f7420656e6f75676820746f6b656e73000000000000000000000000000000600082015250565b60006112086011836110e9565b9150611213826111d2565b602082019050919050565b60006020820190508181036000830152611237816111fb565b9050919050565b7f4661696c656420746f2073656e64204574686572000000000000000000000000600082015250565b60006112746014836110e9565b915061127f8261123e565b602082019050919050565b600060208201905081810360008301526112a381611267565b9050919050565b7f4e487b7100000000000000000000000000000000000000000000000000000000600052601260045260246000fd5b60006112e482610e2e565b91506112ef83610e2e565b9250826112ff576112fe6112aa565b5b828204905092915050565b7f526166666c65206e6f7420616374697665000000000000000000000000000000600082015250565b60006113406011836110e9565b915061134b8261130a565b602082019050919050565b6000602082019050818103600083015261136f81611333565b9050919050565b600061138182610e2e565b915061138c83610e2e565b9250817fffffffffffffffffffffffffffffffffffffffffffffffffffffffffffffffff04831182151516156113c5576113c4610ffc565b5b828202905092915050565b7f43727970746f50756e6b733a204e6f7420656e6f75676820657468657273207360008201527f656e740000000000000000000000000000000000000000000000000000000000602082015250565b600061142c6023836110e9565b9150611437826113d0565b604082019050919050565b6000602082019050818103600083015261145b8161141f565b9050919050565b7f5265656e7472616e637947756172643a207265656e7472616e742063616c6c00600082015250565b6000611498601f836110e9565b91506114a382611462565b602082019050919050565b600060208201905081810360008301526114c78161148b565b9050919050565b60006114d982610e2e565b91506114e483610e2e565b9250827fffffffffffffffffffffffffffffffffffffffffffffffffffffffffffffffff0382111561151957611518610ffc565b5b82820190509291505056fea2646970667358221220ce6726d182ccfd1286654ebd85d14669d94167d31f69b5d2241d6cb730a1c3d764736f6c63430008080033",
  "linkReferences": {},
  "deployedLinkReferences": {}
}